:020000040040BA
:10000000403D002045124000411240004112400096
:100010004112400041124000411240000000000027
:10002000000000000000000000000000411240003D
:100030004112400000000000411240004112400007
:100040004112400041124000411240004112400064
:100050004112400041124000411240004112400054
:10006000411240004112400000000000C510400055
:10007000D9104000ED1040004112400041124000F4
:10008000000000000000000041124000411240004A
:10009000411240004112400041124000D114400082
:1000A0004112400041124000411240004112400004
:1000B0004112400019164000411240004112400018
:1000C00041124000411240004112400010B5054C61
:1000D000237833B9044B13B10448AFF300800123F4
:1000E000237010BD84080020000000009CFA41002D
:1000F000084B10B51BB108480849AFF30080084809
:10010000036803B910BD074B002BFBD0BDE81040BE
:10011000184700BF000000009CFA4100880800203A
:100120009CFA41000000000030B401240460002467
:10013000446040F20225C0F82051C0F80441C0F8E4
:10014000144145682B435200B1FBF2F14A1E1202E2
:1001500092B213434360204630BC70474368194352
:10016000D201D2B211434160704700BF10B444685D
:100170002243090601F070610A431B0703F0405354
:10018000134343605DF8044B704700BF02230360D4
:10019000704700BF01238B40036170470F299ABF4E
:1001A000143150F821000020704700BF41627047B1
:1001B000006B7047D0F8943043F01003C0F89430CF
:1001C000704700BF01230360704700BF41B143681F
:1001D00043F480734360436843F01003436007E0D7
:1001E000436843F480734360436823F01003436023
:1001F00000207047006B7047016270474368012917
:1002000006D823F4981343EA014141600020704767
:1002100001207047012904D801238B40036100208D
:1002200070470120704700BFC0F89410002070474D
:1002300010B489014318022444504FF0FF319962F1
:10024000196A5A605DF8044B704700BF89010523A5
:100250004350704700EB8111CA61704700EB811178
:100260004A62704700EB8111086A704710B50E486A
:100270000E4B984700203E210D4B98470D4CA04750
:100280000028FCD00C4B98470C4A0D4B9A620D4C41
:10029000A0470028FCD010200B4B98470B4B9847E9
:1002A0000148024B984710BD000E27070914400073
:1002B00069114000BD114000CD114000013F1320E5
:1002C00000040E40DD11400001114000F512400015
:1002D00038B54FF40042244B5A600B20234CA04702
:1002E0000C20A0470D20A04713204FF06051204C58
:1002F000A04714204FF06051A04723201D49A0477C
:100300004C201D49A0471D484FF4C0614FF00062CA
:100310001B4B98471B4D40202946A04741202946AA
:10032000A04742202946A04743202946A047442011
:100330002946A04745202946A04746202946A047F0
:1003400047202946A0474B202946A0474820294658
:10035000A0474F202946A04753202946A0474D20BB
:100360004FF04051A04738BD50140E40ED114000F1
:100370001D0E40007900002859000028000E0E4094
:10038000410F40000100000870B483B0C0F11100BB
:10039000102828BF1020002808BF01200021104E7F
:1003A0004FF40055182475630194019B5A1E019265
:1003B000002BFAD135630194019B5A1E0192002B48
:1003C000FAD101318142EED34FF400330193019B06
:1003D0005A1E0192002BFAD103B070BC704700BFC7
:1003E00000120E4082B04FF40052064B5A634FF495
:1003F00000330193019B5A1E0192002BFAD102B0E7
:10040000704700BF00120E400A4B1B78012B06D12B
:100410004FF0C24300221A7022221A707047022B3A
:1004200007D14FF0C2432C221A7000221A703C22CE
:100430001A707047600C0020C0F30742034B1A701B
:10044000C0F307221A70C0B2187070470200006132
:100450002DE9F8430746884631F0070918D00446CD
:100460000026124D57F82600A8476068A847A068E4
:10047000A847E068A8472069A8476069A847A0691D
:10048000A847E069A847083620344E45EAD300E083
:100490000026B04508D907EB8604044D54F8040B38
:1004A000A8470136B045F9D8BDE8F88339044000C3
:1004B0004FF0C24300221A7018700A0A02331A70F1
:1004C000C9B21970704700BF10B44FF0C243002486
:1004D0001C7018704AB14B1E501E51FA80F104482E
:1004E00013F8012F02708B42FAD15DF8044B70476C
:1004F0000200006182B000230193019B984211D950
:100500000021094A0191019B934205D8019B0133C7
:100510000193019B9342F9D9019B01330193019B04
:100520008342EFD302B070479F86010030B4154C70
:1005300024680568A54224BF04F1FF3505601568ED
:10054000AC429CBF04F1FF3414600F4C24680D686A
:10055000A54224BF04F1FF350D601D68AC429CBF6D
:1005600004F1FF341C6004681568AC4284BF056068
:1005700014600A681868824284BF08601A6030BC40
:10058000704700BF000000200400002082B04FF040
:10059000C24300221A70D3221A7002331A788DF8DF
:1005A00000201A788DF801201A788DF802201B7827
:1005B000DBB28DF80330D2B203EB02239BB249F2D7
:1005C0004132934204D102220E4B1A70002017E0F0
:1005D0004FF0C24300221A701A7002331A788DF855
:1005E00000201B78D2B203EB02239BB249F22532E2
:1005F000934204D10122034B1A70002000E0012035
:1006000002B07047600C002008B5094B1B78012B25
:1006100005D1072040F23311064B984708BD022B45
:1006200004D1292000210A46034B984708BD00BF8A
:10063000600C0020B1044000C9044000044A131FAC
:1006400002F56F7243F8040F9342FBD1704700BF6D
:10065000A00800202DE9F04182B00C4617461E4646
:10066000224B1B78012B14D185B250202946DFF88C
:100670008480C047791E2944512089B2C047A4B262
:1006800052202146C047711E2144532089B2C047E1
:1006900028E0022B26D1030A8DF80430C3B28DF86E
:1006A0000530013A1044000A8DF8060017461F4431
:1006B0008DF807702A2001A904220D4DA847230AAE
:1006C0008DF80430E3B28DF80530721E1444240A0C
:1006D0008DF8064016461E448DF807602B2001A9B0
:1006E0000422A84702B0BDE8F08100BF600C0020E2
:1006F000C9044000B104400038B5064B1B78012BFB
:1007000007D10C4601462020034DA8472120214651
:10071000A84738BD600C0020B10440002DE9F0432B
:1007200083B00646AC4B9847002840F04F81F0223A
:10073000AA4B1A604FF4A072A94B1A60A94B1B7800
:10074000012B40F0B18007203321A74CA047102097
:100750000021A04700200121A04701204FF4807113
:10076000A04702204FF4E061A04704200021A047E9
:10077000082040F20721A04709200021A0470A20B5
:100780000021A0470C200021A0470D200021A047F8
:100790000F200021A04710200021A0471120002198
:1007A000A04712200021A04713200021A047C82005
:1007B0008E4DA847102041F29021A047112040F211
:1007C0002721A0473220A84712201B21A047322012
:1007D000A84713204FF48851A04729201921A0478A
:1007E0002B200D21A0473220A84730200021A04710
:1007F00031204FF40171A04732204FF40071A0471F
:1008000035200721A047362041F20441A047372078
:1008100040F20571A047382040F20531A047392049
:1008200040F20771A0473C2040F20171A0473D20F3
:100830000E21A04703204DF21001A04760204FF485
:100840002741A04761200121A0476A200021A0473D
:1008500080200021A04781200021A0478220002184
:10086000A04783200021A04784200021A0478520A5
:100870000021A04790201021A04792204FF4C06192
:10088000A04795204FF48871A047002001463268A8
:100890007368574CA047B068564B984700200146F4
:1008A000554B9847002094E0022B40F0918039236B
:1008B0008DF800302C238DF8013000248DF8024093
:1008C00034238DF8033002278DF80470CB2069465D
:1008D00005224A4DA8478DF80040AA238DF8013023
:1008E000B0238DF80230CF2069460322A847302379
:1008F0008DF80030F72069460122A84725238DF89E
:100900000030C02069460122A8474FF011098DF838
:100910000090C12069460122A8475C238DF8003071
:100920004C238DF80130C52069463A46A8479423E8
:100930008DF80030C72069460122A84785238DF82D
:1009400000304FF001088DF8018078238DF80230D7
:10095000E82069460322A8478DF800408DF8014041
:10096000EA2069463A46A84748238DF800303620E9
:1009700069464246A84706238DF800303A2069466A
:100980004246A8478DF8007082238DF80130272356
:100990008DF802308DF80340B62069460422A8473E
:1009A0002046214632687368114FB847B068114B32
:1009B0009847484669462246A8470A200B4B984765
:1009C000292069462246A847204602E0012000E08F
:1009D000012003B0BDE8F0838D0540000000002039
:1009E00004000020600C0020B1044000F504400029
:1009F000550640003D064000F9064000C90440008D
:100A000010B5164B1B68834221D9154B1B688B42CE
:100A10001FD9144B1B78012B0BD180B289B2124B1A
:100A20009847124B9847124B1868124B9847002072
:100A300010BD022B0FD1002213460F4CA0470B4BC9
:100A400098470B4B18680B4B9847002010BD0120AE
:100A500010BD012010BD002010BD00BF000000200F
:100A600004000020600C0020F9064000090440004A
:100A7000A008002039044000550640002DE9F0414F
:100A800084B0039002910192009303A802A901AAE5
:100A90006B46224CA047039D029C01994A1C009979
:100AA0004B1C28462146521B1B1B1D4CA047BDF862
:100AB0000C00BDF808101B4B98471B4B9847029A37
:100AC000009B9A1A019B03F10108039BC3EB0808E2
:100AD00002FB0888154CA4FB0834E40907D0144F26
:100AE000F026144D38463146A847013CFAD10F494B
:100AF000A1FB0831C909C1EB01110D48A8EB011197
:100B00000C4B9847002001460B4B1A680B4B1B6897
:100B1000034CA04704B0BDE8F08100BF2D054000A4
:100B200055064000F906400009044000898888887D
:100B3000A008002051044000000000200400002014
:100B40002DE9F04F85B0039002921378002B46D028
:100B50008B460190DFF890900A2B04D10BF1100B1B
:100B6000039B019335E003EB83031E4E06EB8303E7
:100B7000A3F27F26019A13460A3300939046072476
:100B800037460BEB040A3D4616F8013C234113F0AF
:100B9000010F03D04046C4EB0A01C847013CB4F141
:100BA000FF3FF0D107240BF10F072B78234113F0FF
:100BB000010F02D04046391BC847013C012CF4D13B
:100BC000023608F10108009B9845D8D1019B0C33EF
:100BD0000193029A12F8013F0292002BBCD105B09A
:100BE000BDE8F08F74784000010A400030B585B050
:100BF00003900291024401920B44009303A802A9BE
:100C000001AA6B46224CA047039D029C01994A1CF5
:100C100000994B1C28462146521B1B1B1D4CA0470C
:100C20001D4B1B78012B1AD1BDF80C00BDF8081024
:100C30001A4B98471A4B98470299009B5B1A0399E5
:100C4000019A511A089801FB03F1164B98470020AE
:100C50000146154B1A68154B1B68A04716E0022B7E
:100C600014D10F4B98470299009B5B1A0399019A84
:100C7000511A089801FB03F10A4B984700200146DE
:100C8000094B1A68094B1B68024CA04705B030BDE0
:100C90002D05400055064000600C0020F90640007C
:100CA000090440005104400000000020040000201E
:100CB00009014250704700BF00EB01114A607047C4
:100CC00000EB01118A60704700EB0111CA607047A8
:100CD000C0F8841052004FF40043B3FBF2F2013A23
:100CE000C2F30D02C0F88C20704700BF4264B1F11E
:100CF000C05F2FD007D8B1F1006F14D0B1F1805F81
:100D00001ED039B97047B1F1205F37D004D8B1F1A6
:100D1000005F29D042607047B1F1405F2ED0B1F141
:100D2000605F2BD0F6E710B4016F046FD34321400E
:100D300019400167416F446F21400B4043671AE03F
:100D4000036F13430367436F416F0B4023EA0203B2
:100D50004367DFE7036F016F0B4023EA020303677A
:100D6000436F13434367D5E7036F13430367436F31
:100D700013434367CEE742605DF8044B704700BF02
:100D8000416412F0010F14BF4166016612F00A0FB0
:100D900014BF0162416212F0020F02D0C0F880104D
:100DA00004E012F0080F18BFC0F884104161016020
:100DB000704700BF10B44164019C0CB1416600E073
:100DC00001660BB1016500E041650AB1016300E015
:100DD0004163016101605DF8044B704712F0100F30
:100DE00010D0C0F8B01012F0200F14BFC0F8D4100B
:100DF000C0F8D01012F0400F14BFC0F8C010C0F8F7
:100E0000C4107047C0F8B410704700BFC36C0164D1
:100E1000704700BFC06C7047806C704770B582B07F
:100E20000D46430903F5001303F207735C0201F05A
:100E3000F043B3F1005F47D009D8B3F1805F21D010
:100E4000B3F1C05F2FD0B3F1006F6FD109E0B3F100
:100E5000405F55D0B3F1605F52D0B3F1205F44D012
:100E600064E000F01F000126864020464FF000613C
:100E70003246304B984715F0010F14BF6666266660
:100E8000012054E000F01F000126864020464FF06C
:100E900080513246274B984715F0010F14BF666604
:100EA0002666012043E000F01F0001268640204610
:100EB0004FF0C05132461F4B984715F0010F14BF39
:100EC00066662666012032E000F01F00012686409B
:100ED00020464FF000513246164B984715F0010F4F
:100EE00014BF66662666012021E000F01F0301267C
:100EF000204606FA03F12A460F4B9847304616E083
:100F000000F01F03012605F0605205EA060100917A
:100F1000204606FA03F1B2F1605F14BF00220122FD
:100F2000C5F38003054CA047304600E0002002B026
:100F300070BD00BFED0C4000810D4000B50D4000BC
:100F400070B582B006460D46144602F0F043B3F188
:100F5000005F38D009D8B3F1805F1CD0B3F1C05F17
:100F600025D0B3F1006F50D109E0B3F1405F3AD022
:100F7000B3F1605F37D0B3F1205F30D045E04FF080
:100F800000612A46224B984714F0010F14BF756682
:100F9000356601203AE04FF080512A461C4B9847B5
:100FA00014F0010F14BF7566356601202EE04FF076
:100FB000C0512A46164B984714F0010F14BF7566AE
:100FC0003566012022E04FF000512A46104B984729
:100FD00014F0010F14BF75663566012016E00D4B45
:100FE0009847012012E004F0605204F001030093DE
:100FF00030462946B2F1605F14BF00220122C4F3DB
:101000008003054CA047012000E0002002B070BD25
:10101000ED0C4000810D4000B50D40002DE9F84376
:1010200081468846124B984705464846114B9847DB
:10103000054013D0104C04F160062368434508D1E5
:101040006168294205D0E36840469847636825EA0D
:101050000305B44202D01034002DEED1074B1B68BB
:1010600023B1074B1B680BB148469847BDE8F8838E
:10107000150E4000190E40006C0C00201C0D0020C5
:10108000680C0020F8B50C4C2468062C11D81546C5
:101090000A4F2201BE18B9507560B360069AF2601B
:1010A0000134054A146029461A46054B984700202A
:1010B000F8BD0120F8BD00BF640C00206C0C0020BE
:1010C000DD0D400008B502480B21024B984708BDD2
:1010D000000E0E401D10400008B502480C21024BC6
:1010E000984708BD00100E401D10400008B502488A
:1010F0000D21024B984708BD00120E401D10400004
:10110000184A136B23F0700318431063936E13F0A7
:10111000080F03D009E0013B03D11EE04FF4006348
:1011200010498A6E12F0080FF5D00E4A136B23F0A7
:10113000030343F002031363906E10F0080004D021
:1011400000207047013B03D109E04FF400630549DB
:101150008A6E12F0080FF5D0704701207047012009
:10116000704700BF00040E4038B111490B6A114AA4
:101170001A40114B13430B6270470D4A136A23F454
:101180005C1323F0030343F45C1343F001030902EF
:1011900089B20B431362936E13F0010FFBD0044A24
:1011A000136A43F09B7343F480331362704700BFAC
:1011B00000040E40FCFFC8FE02003701024B986E8F
:1011C00000F48030704700BF00040E404FF0005222
:1011D000014B9A62704700BF00040E40024B986EAC
:1011E00000F00200704700BF00040E4022281ED805
:1011F0001F280CD8114B9A69012383401A4093424F
:1012000017D0012383400D4A1361002070470B4B18
:10121000D3F808212038012383401A4093420AD092
:1012200001238340054AC2F80031002070470120A5
:101230007047002070470020704700BF00040E4038
:10124000FEE700BF08B5204B204A9A4213D9204B35
:101250001D4A9A421FD21146043203339B1A23F0CF
:1012600003030433194A134452F8040B41F8040BE6
:101270009A42F9D10FE0144B144A9A420BD2144B04
:10128000114A9A1A134881182AB151F8042943F8CF
:10129000042D8142F9D100BF0F4B104A9A420BD264
:1012A000131D0F4AD21A22F003021A44043B0021F4
:1012B00043F8041B9342FBD10A4B0B4A9A600B4B39
:1012C00098470B4B9847FEE7000000209CFA41002E
:1012D0008408002098FA41003C0D0020840800207A
:1012E0003F0D002000ED00E000004000E935400027
:1012F000911840003D4B1B6B03F00303032B5DD89B
:10130000DFE803F0020E2B2B394B5B6913F0800FE3
:1013100014BF4FF400424FF4FA42364B1A604DE0CE
:10132000324B1B6A13F0807F03D0334A314B1A6073
:1013300044E0324A2F4B1A602C4B1B6A03F07003B7
:10134000102B02D0202B04D038E02D4A294B1A60F4
:1013500034E0294A274B1A6030E0244B1B6A13F013
:10136000807F03D0244A234B1A6012E0234A214B8A
:101370001A601E4B1B6A03F07003102B02D0202B47
:1013800004D006E01E4A1B4B1A6002E01A4A194BB1
:101390001A60164B1B6B03F00303022B134A07BFA3
:1013A000936A926AD36AD26A1248C3F30A41036805
:1013B00001FB0333D2B2B3FBF2F303600B4B1B6BA5
:1013C00003F07003702B07D10A4A13680D49A1FB83
:1013D00003135B0813607047044B1A6B0549C2F393
:1013E00002120B68D3400B60704700BF00040E4030
:1013F00010140E4008000020001BB70000093D003B
:1014000000127A00ABAAAAAA1A4B984207D84FF04A
:101410008063194A136002F5007213607047174B1E
:10142000984206D8164B144A136002F500721360F6
:101430007047144B984206D8134B0F4A136002F5BD
:10144000007213607047114B984206D8104B0A4A3D
:10145000136002F50072136070470E4B984294BF00
:101460004FF004230C4B044A136002F50072136022
:10147000704700BFFF2C3101000A0E40FF59620285
:1014800000010004FF86930300020004FFB3C404BC
:1014900000030004FFE0F50500050004094B1B688C
:1014A00013B9094A074B1A60064B1B681A180749FB
:1014B000914204DB1046034A1060184670474FF013
:1014C000FF307047DC0C0020403D0020FC7F0220F4
:1014D000F0B583B024480021244B98470190019B2C
:1014E000234B1B88232B02D90022214B1A80214B2E
:1014F000186800F6FF7000EBD0701F4C4010A0473A
:1015000006460F461A4B1888421C1A80A0471B4DEE
:1015100011A3D3E90023A847194B984702460B466D
:10152000184C30463946A8470DA3D3E90023164D81
:10153000A847164B98472060154D2846154B9847ED
:10154000009028462168144B98471448144B98473C
:1015500003B0F0BDAFF300808744E74A1857C63F99
:101560000000000000FC9F400000014065024000B8
:10157000E00C0020200D0020592F400025304000B5
:10158000E1194000E40C0020C12C4000A9354000C6
:1015900000C00340F5014000F90140000080034015
:1015A0008D01400070B584B0044600F6FF73124A06
:1015B00082FB03121A44DB17C3EBE2220F4800211F
:1015C00052010F4B98476FF07F400E4DA8477D208A
:1015D0006421C822AA230C4EB0470020A84701A8C6
:1015E0000A210A4A23460A4CA04782206E2101AAFA
:1015F000084B984704B070BD81000880000001408E
:10160000550240003D0640007D0A4000F4F64100CE
:10161000D5364000410B400010B50C480C4B9847A4
:1016200010F0200F11D0094805210A4B98470446B5
:10163000094B1B689A1C904202D8023B984202D286
:101640002046064B9847044B1C6010BD00800340A9
:10165000B10140009D014000240D0020A51540006F
:1016600070B584B005466FF07F400B4CA0477D20DD
:101670006421C822AA23094EB0470020A04701A830
:101680000A21074A2B46074CA0478220962101AA2F
:10169000054B984704B070BD3D0640007D0A4000F0
:1016A000F4F64100D5364000410B400008B5034B2D
:1016B000186801301860024B984708BD200D0020C3
:1016C0006116400008B5034B186801381860024BDA
:1016D000984708BD200D0020611640002DE9F0411B
:1016E00082B00A20224B9847224C204601214FF01D
:1016F0000232214B984720460121204A204B98472F
:10170000204601211F4A204B9847204601210322F1
:101710001E4B98471E4DF0272F604FF4A0766E6049
:101720000024AC606FF07F48C5F80C80194B9847D7
:101730002846194B98470820184B98474046184BA5
:101740009847204621463A463346164DA847164B41
:10175000984720462146154B9847154B0093204645
:10176000DB21EF226323134CA04702B0BDE8F081D8
:10177000ED11400000000E40B10C400004040A0AC4
:10178000B90C40000A001600C10C4000C90C400012
:10179000280D0020E50340001D074000890340009C
:1017A0003D0640007D0A400009064000F906400061
:1017B000F47F4000ED0B400010B51E200B4B984706
:1017C0000B4C20460B4B9847204600210A4B98476C
:1017D00020460121094B984720460121084B984794
:1017E00020464FF48571074B984710BDED1140001E
:1017F00000C00340C5014000CD014000FD01400094
:10180000150240002902400038B51D20144B9847AE
:10181000144C20461449154A4FF48023144DA84710
:10182000204601214FF440120B46124DA847204696
:1018300000210A46104B9847204605210F4B984738
:1018400020460F4B98474FF000520E4B1A6020462F
:101850000D4B9847204620210C4B984738BD00BFC0
:10186000ED11400000800340000E270700A8610032
:10187000290140006D0140005D01400095014000DC
:10188000B501400000E100E08D014000AD014000E5
:1018900080B582B03A4B98473A4B98473A4B9847B5
:1018A0003A4B984717203A4EB0473A4D2846002108
:1018B00044F20402384B9847284600212022374B37
:1018C0009847374C4FF4000323602846002110222C
:1018D000344B984728460021334B9847334B984761
:1018E0000C20B0470D20B047314E30460821092268
:1018F000304FB84705F5512505F5007528464FF4DA
:1019000080510922B847304608210A222A4FB84799
:1019100028464FF480510A22B847284B009330469E
:101920000C2108225123264FB847264B0093284606
:101930000D214FF480525123B84730460821224EE2
:10194000B04728464FF48051B047002084F80C037C
:1019500084F80D034FF4805323604FF40053236049
:101960001A4B98470A206E21194A1A4CA0470A20A0
:101970009621194AA0470122184B1A60FEE700BFC2
:101980006D024000D1024000DD164000B917400052
:10199000ED114000000001403102400055024000BE
:1019A00000E100E05D0240004D02400009184000E7
:1019B00000100E40810D4000D10C4000C5164000C3
:1019C00085104000AD1640000D0E40003D06400061
:1019D000F8F64100410B400004F74100200D0020C3
:1019E00030B5224A21F00043934287B01BDD204AE4
:1019F000934205DD02460B4601F060F907B030BDA9
:101A000002AA00F039F800F0030001281ED00228D5
:101A100011D010B3DDE90201DDE9042300F050FA32
:101A200001F10041EAE7002300930022002300F0C7
:101A30006FFF07B030BD0124DDE90201DDE90423B9
:101A4000009400F065FF01F10041D7E7DDE90201F4
:101A5000DDE9042300F034FAD0E70124DDE90201D6
:101A6000DDE90423009400F053FFC7E7FB21E93FC1
:101A7000FFFFEF7F000000002DE9F04F964E21F0B0
:101A8000004BB3458FB00C4640F381809246934A99
:101A9000934526DC002986A3D3E9002340F3A881DF
:101AA00001F00CF98E4B9B4504460D4600F08480F6
:101AB00081A3D3E9002301F001F902460B46CAE9EC
:101AC00000232046294601F0F9F87BA3D3E900233F
:101AD00001F0F4F80125CAE9020128460FB0BDE87B
:101AE000F08F804A934540F384807F4A934559DCC8
:101AF0004FEA2B55A5F21645ABEB0557394606467E
:101B000001F02AFD01F028FA8046894602460B467C
:101B100030463946CDE9088901F0D0F80022734BF0
:101B200001F080FA0F46064601F016FD01F014FAA6
:101B300002460B468046894630463946CDE90A8939
:101B400001F0BCF80022694B01F06CFA002200237E
:101B5000CDE90C0101F0CEFC002800F075810023D6
:101B600040464946002201F0C5FC002814BF01236D
:101B7000022302225E49009201912A4608A851469A
:101B800000F0C2FA002CC0F25181054606E0C2E91D
:101B9000000100250024C2E90245002528460FB0B7
:101BA000BDE8F08F02460B4601F088F80025CAE92F
:101BB0000201CAE90001F1E741A3D3E9002301F0E2
:101BC0007DF841A3D3E900230D46044601F076F8E1
:101BD00002460B46CAE900232946204601F06EF86A
:101BE00039A3D3E9002301F069F80125CAE902010C
:101BF000D4E700F043FF36A3D3E9002306460F469F
:101C000001F010FA00223B4B01F05AF801F0A4FC5D
:101C1000054601F0A1F926A3D3E90023CDE904018B
:101C200001F000FA02460B463046394601F046F80C
:101C300021A3D3E9002380468946DDE9040101F0B0
:101C4000F1F91F2DCDE902014046494656DC2A4BE9
:101C50006A1E53F822305B4550D0DDE9022301F0C3
:101C60002DF802460B46CAE9002307460E463A46BF
:101C700033464046494601F021F8DDE9022301F0F0
:101C80001DF8002C02460B46CAE9022386DA06F14B
:101C9000004601F10041CAF80070CAF80460CAF8B1
:101CA0000C10CAF808006D4278E700BFAFF300805F
:101CB00000004054FB21F93F3163621A61B4D03D0A
:101CC0000000601A61B4D03D7370032E8A19A33BE3
:101CD00083C8C96D305FE43FFB21E93F7BD90240F7
:101CE000FB21F93FFB213941FFFFEF7F00007041ED
:101CF00090F741000000E03F10F74100DDE90223CA
:101D000000F0DCFF0E464FEA2B5BC6F30A53C3EB31
:101D10000B03102B0746CAE90001A8DD5CA3D3E939
:101D20000023DDE9040101F07DF906460F46324645
:101D30003B464046494600F0C1FFCDE90601DDE9DA
:101D400006234046494600F0B9FF32463B4600F0C4
:101D5000B5FF51A3D3E9002306460F46DDE9040190
:101D600001F060F932463B4600F0A8FFCDE90201E0
:101D7000DDE90223DDE9060100F0A0FF0E46C1F314
:101D80000A51C1EB0B0B02463346BBF1310F07463C
:101D9000CAE9002378DD42A3D3E90023DDE9040189
:101DA00001F040F906460F4632463B46DDE90601A2
:101DB00000F084FF8046894642464B46DDE9060135
:101DC00000F07CFF32463B4600F078FF36A3D3E9B3
:101DD000002306460F46DDE9040101F023F93246EF
:101DE0003B4600F06BFFCDE902014046494634E72F
:101DF00000F066FF304B9B4504460D4626D02CA3D1
:101E0000D3E9002300F05CFF02460B46CAE9002339
:101E10002946204600F052FF25A3D3E9002300F015
:101E20004FFF4FF0FF35CAE90201B7E6DAF80420A8
:101E3000DAF80C3002F1004203F100434542CAF8DF
:101E40000420CAF80C30A9E6032392E610A3D3E9D4
:101E5000002300F035FF10A3D3E900230D4604460C
:101E600000F02EFF02460B46CAE900232946204611
:101E700000F024FF08A3D3E9002300F021FF4FF076
:101E8000FF35CAE9020189E6DDE90689EFE600BF10
:101E90000000601A61B4D03D7370032E8A19A33B11
:101EA0000000002E8A19A33BC14920259A837B3963
:101EB0003163621A61B4D03DFB21F93F000000009C
:101EC0002DE9F04F21F00047B7F1795F85B00C465E
:101ED00092469B4605466BDA01F03EFB002800F077
:101EE000E8802A4623462846214601F09BF874A341
:101EF000D3E900238046894601F094F872A3D3E920
:101F0000002300F0DDFE42464B4601F08BF870A343
:101F1000D3E9002300F0D2FE42464B4601F082F89E
:101F20006DA3D3E9002300F0CBFE42464B4601F0FF
:101F300079F86BA3D3E9002300F0C0FE42464B467C
:101F400001F070F868A3D3E9002300F0B9FE42461F
:101F50004B4601F067F8CDE90001404649460022B2
:101F6000634B01F05FF8DDE9002306460F4640466B
:101F7000494601F057F85246804689465B46284656
:101F8000214601F04FF802460B464046494600F014
:101F900095FE02460B463046394600F08FFE02465B
:101FA0000B460020534900F089FE05B0BDE8F08FD4
:101FB00002460B4601F036F841A3D3E900238046E0
:101FC000894601F02FF840A3D3E9002300F078FE02
:101FD00042464B4601F026F83DA3D3E9002300F02A
:101FE0006DFE42464B4601F01DF83BA3D3E90023AA
:101FF00000F066FE42464B4601F014F838A3D3E9E0
:10200000002300F05BFE42464B4601F00BF836A37E
:10201000D3E9002300F054FE4B46424601F002F89B
:10202000354B9F42CDE9000197DD344B9F424FF085
:10203000000238DCA7F5001300202E4916461F4683
:1020400000F03CFECDE90201404649460022284B03
:1020500000F0E8FF32463B4600F030FEDDE90023A9
:1020600006460F464046494600F0DCFF5246804691
:1020700089465B462846214600F0D4FF02460B46BF
:102080004046494600F01AFE02460B4630463946A5
:1020900000F014FE02460B46DDE9020100F00EFEE0
:1020A00005B0BDE8F08F164B164FCDE90223002690
:1020B000CAE71049002005B0BDE8F08FAFF30080FB
:1020C000D43888BEE9FAA8BDC4B1B4BD9EEE213EA5
:1020D000AD529C804F7E923E9015CB19A001FA3EE6
:1020E0007751C1166CC1563F4C5555555555A53FB6
:1020F0000000E03F0000F03F3233D33F0000E93FF3
:102100000000E73F0000D23F2DE9F04FADF51D7D07
:102110007B4CA69E7B4D54F8264009942646D41E3F
:1021200085FB0475E417C4EBA50424EAE4741D469A
:102130000C93E34303EB4303013D02EBC30308931A
:102140002B460D940395651B9C1904900A9116D497
:102150002C44013422AEA79F08E057F8250000F078
:10216000FBFE0135A542E6E9020108D0002DF4DAB4
:10217000013500200021A542E6E90201F6D1099BC4
:10218000002B31DB099A0C9B74A901EBC20BC3EB4A
:102190004373039A24A9DB0001EBC20800930DF5F9
:1021A000E479039B002BC0F29981049BA3F1080AF8
:1021B000009B444608EB030500260027FAE90223AA
:1021C00074E8020100F02EFF02460B463046394605
:1021D00000F076FDAC4206460F46EFD1E9E9026712
:1021E000D94508F10808DCD1099901F18043013B88
:1021F0009B001A1D10A8024403440F920E938B46B5
:102200004FEACB039CA91A460693BBF1000F0B447F
:1022100053E9284528DD0DF5E87A0AEB02060FAFF1
:102220000022394B2046294600F0FCFE01F094F9CB
:1022300000F092FE0022354B8046894600F0F2FE07
:1022400002460B462046294600F038FD01F084F98D
:1022500076E9022347F8040F4946404600F030FD76
:10226000564504460D46DBD1DDF820902046294630
:102270004A4600F095FC00224FF07F5304460D467D
:1022800000F0D0FE00F000FC0022214B00F0CAFE5E
:1022900002460B462046294600F010FD04460D4636
:1022A00001F05AF9804600F057FE02460B462046E0
:1022B000294600F003FD4C46002C06460F4640F32D
:1022C000F3800BF1FF3110ABC9F1180253F8213044
:1022D00043FA02F000FA02F510AA5D1BC9F11703D8
:1022E00042F8215080441D41002D3EDDBBF1000F1E
:1022F00008F1010840F38A82002214460FA911E078
:1023000098F84100ABAAAA2A0000703E0000704174
:1023100000002040C3F180700BB10860012401323D
:1023200093450DDD51F8043F002CF3D0C3F1FF13AA
:10233000013203F57F4393450B604FF00104F1DC5C
:10234000089B002B0EDD012B00F0B680022B09D17B
:102350000BF1FF3210AB10A953F82230C3F3150371
:1023600041F82230022D00F08680304639460022A6
:10237000002301F0BFF8002800F0CC80099B0BF18E
:10238000FF3A53450DDC10AB0F9803EB8B03002293
:1023900053F8041D834242EA0102F9D1002A40F0B9
:1023A0001B82099B10AA013B52F82330002B40F0FE
:1023B0002B820E9A012352F8041D01330029FAD012
:1023C0005B441A460B930BF1010393424DDC0D9ACB
:1023D00003EB02090B9A0C9B09F180495B44CBEBA0
:1023E000020BA79A09F1FF3902EB890200924FEA2A
:1023F000CB02DB00059224AA02EB030B0793069B9A
:1024000074AA02EB030A4FF00008009B53F8040F74
:10241000009300F0A1FD039B002BEBE8020127DBFA
:10242000079B03EB0804069B08EB030524AB1C4445
:102430001D44049B0026A3F108090027F9E90223A3
:1024400074E8020100F0EEFD02460B4630463946C4
:1024500000F036FCAC4206460F46EFD1059B08F172
:1024600008089845EAE90267CFD1DDF82CB0C7E645
:1024700000260027F2E732463B460020C04900F024
:102480001DFC06460F46002C3FF46FAF089ABC496E
:10249000002000F085FB02460B463046394600F02E
:1024A0000DFC06460F4660E711D10BF1FF3310AA71
:1024B00052F82350ED1517E70BF1FF3210AB10A9BE
:1024C00053F82230C3F3160341F822304AE70022C2
:1024D000AC4B01F02DF858B9054646E70026002719
:1024E000E9E90267D94508F108087FF45AAE7BE6AE
:1024F000BBF1000F08F10108C8BF02253FF7FCAE91
:1025000032463B4600209E4900F0D8FB0225064695
:102510000F462AE7089B03955A4230463946CDF8C4
:10252000148000F03DFB0022974B04460D4600F05E
:10253000FFFF002800F0E3810022944B204629464B
:1025400000F070FD01F008F8064600F005FD0022DD
:102550008D4B00F067FD0B4602462946204600F0F1
:10256000ADFB00F0F9FF089B18330BF1010A08934B
:1025700010AB43F82B0043F82A60089A80490020EA
:1025800000F00EFBBAF1000F04460D46C0F2CD80FC
:102590000AF101034FEAC30874AF10AA009302EBDB
:1025A000830907EB080659F8040D00F0D5FC224614
:1025B0002B4600F037FD002266E90201734B2046EE
:1025C000294600F02FFDBE4204460D46EBD1A8F18E
:1025D000080806EB08030DF59879CDF818A0DDF88A
:1025E00024A0CDF810904FF000089B46BAF1000FE0
:1025F000C0F29880B8F1000FC0F29480DFF890919B
:102600005D4600260027002401E0444510DCF9E97E
:102610000223F5E8020100F005FD02460B463046B4
:10262000394600F04DFB0134A24506460F46ECDA70
:10263000049B03EBC803C3E90067009B08F1010892
:102640009845ABF1080BD1D1A69BDDF818A0DDF8B9
:102650001090032B3DD8DFE813F043000400040082
:10266000DB00009B002409EBC306254620462946D3
:1026700076E9022300F024FB4E4504460D46F5D1D1
:10268000039B002B00F08E800A982B4605F1004535
:10269000224680E83000D9E9000100F00FFBBAF1D2
:1026A000000F02460B460DDD012410461946F9E9DC
:1026B000022300F005FB0134A24502460B46F4DA82
:1026C000039909B103F1004319460A9B1046C3E977
:1026D0000201059B03F007000DF51D7DBDE8F08F9D
:1026E000009B002209EBC30913461046194679E9FD
:1026F000022300F0E5FA0AF1FF3ABAF1FF3F024681
:102700000B46F2D1039909B103F1004319460A9B24
:102710001046C3E90001059B03F007000DF51D7D80
:10272000BDE8F08F0026002782E7A69B032BD0D8B8
:10273000DFE803F04F3030020DF59879039B002756
:102740003E46002B00F0C780D9F80C300A9DD9F81E
:102750000400D9F80020D9F808102F6103F10043D4
:10276000EB60059B2A6000F1004006F100466860BE
:1027700003F007006E61A9600DF51D7DBDE8F08FC7
:102780000000F03F0000E03F000070410000703E9C
:10279000A0F84100039B002425460DF59879002BF5
:1027A0007FF472AF204622460A9C29462B46C4E994
:1027B0000001D9E9000100F081FABAF1000F0246E8
:1027C0000B463FF771AF19460A9B1046C3E9020159
:1027D0007FE70022134695E710AB089A53F82A309A
:1027E0000395183ACDF814800892002B7FF4C5AEFB
:1027F00010AB03EB8A0353F8041D0AF1FF3A183AB1
:102800000029F8D00892B8E60123D9E5002497E51D
:10281000BAF1000F92DD4FEACA0809EB080BDBE9B9
:1028200000677BE9022330463946CDE9002300F0FA
:1028300047FA04460D4622462B46DDE9000100F02A
:102840003DFA02460B463046394600F039FACB4590
:1028500026462F46CBE90201CBE90045E1D1BAF18A
:10286000010F7FF76BAF09EB080ADAE900670DF596
:102870009C7B7AE902231046194632463B46CDE955
:10288000000100F01DFA04460D4622462B46DDE904
:10289000000100F013FA32463B4600F011FADA4527
:1028A00026462F46CAE90201CAE90045E1D108F1EE
:1028B000080400274C443E4650AD3846314674E982
:1028C000022300F0FDF9AC4207460E46F5D1039B0A
:1028D000002B7FF439AFD9E900233C460A9FD9E9A0
:1028E0000201C7E90023059B3546C7E9020103F051
:1028F0000700C7E904450DF51D7DBDE8F08F2046B2
:10290000294600F029FE10ABDA4643F82B0034E6E6
:102910002DE9F04F21F00046B6F1795F85B00C4605
:1029200090469946054604DA00F016FE002800F0AD
:1029300083802A4623462846214600F073FB2A4618
:10294000234606460F4600F06DFB3FA3D3E9002364
:1029500082468B463046394600F064FB3CA3D3E9FF
:10296000002300F0ABF932463B4600F05BFB3AA394
:10297000D3E9002300F0A4F932463B4600F052FBB5
:1029800037A3D3E9002300F099F932463B4600F023
:1029900049FB35A3D3E9002300F092F90E9BCDE962
:1029A00000019BB3404649460022334B00F03AFBFE
:1029B000DDE90023CDE902015046594600F032FB23
:1029C00002460B46DDE9020100F078F932463B464B
:1029D00000F028FB42464B4600F070F924A3D3E9EF
:1029E000002306460F465046594600F01BFB0246A0
:1029F0000B463046394600F063F902460B4628463E
:102A0000214600F05BF905B0BDE8F08FDDE9002359
:102A10003046394600F006FB15A3D3E9002300F049
:102A20004DF952465B4600F0FDFA2A46234600F077
:102A300047F905B0BDE8F08F2846214605B0BDE84E
:102A4000F08F00BFAFF300807CD5CF5A3AD9E53D77
:102A5000EB9C2B8AE6E55A3E7DFEB157E31DC73E4F
:102A6000D561C119A0012A3FA6F810111111813FAB
:102A7000495555555555C53F0000E03F21F00041EF
:102A8000704700BF000000002DE9F047C1F30A586D
:102A9000A8F2FF36132E0B460D4604460246894621
:102AA00007461DDC002E40DBDFF8F08048FA06F810
:102AB00008EA010E5EEA020217D035A3D3E900232B
:102AC00000F0FEF80022002300F03CFD20B1002DB4
:102AD00040DB29EA0805002738462946BDE8F0878B
:102AE000332E06DDB6F5806F2FD020461946BDE89F
:102AF000F087A8F213424FF0FF3A2AFA02FA1AEAD4
:102B0000000FF2D022A3D3E9002300F0D9F800226D
:102B1000002300F017FD0028DED0002D1FDB4D46FE
:102B200027EA0A0738462946D8E719A3D3E900233C
:102B300000F0C6F80022002300F004FD0028CBD0EE
:102B4000002D1ADB00273D46C6E702460B4600F083
:102B5000B7F8CCE74FF4801333419944B9E7142E0A
:102B600008D0C8F5866808F10308012303FA08F3C2
:102B70001F19D4D309F10109D1E725F00042064B12
:102B8000224318BF1D460027A6E700BFAFF3008011
:102B90009C7500883CE4377E0000F0BFFFFF0F000B
:102BA000F8B5C1F30A5604460D460B46174616BB48
:102BB00021F00043034332D00022374B00F032FAB9
:102BC000364A974204460D460B4637DBC1F30A5698
:102BD000363E3E4440F2FE72964215DD22462B46BA
:102BE00029A1D1E9000100F05DF827A3D3E9002372
:102BF00000F018FAF8BD40F2FF72964224D03E442D
:102C000040F2FE729642E9DC002E09DD23F0FF431C
:102C100023F4E00343EA065520462946F8BDF8BDF3
:102C200016F1350F15DA4CF250339F4222462B46EF
:102C30001DDC17A1D1E9000100F034F814A3D3E999
:102C4000002300F0EFF9F8BD02460B4600F038F81B
:102C5000F8BD23F0FF4323F4E003363643EA06557C
:102C60002046294600220E4B00F0DCF9F8BD06A1F3
:102C7000D1E9000100F016F803A3D3E9002300F026
:102C8000D1F9F8BDAFF300809C7500883CE4377E35
:102C900059F3F8C21F6EA50100005043B03CFFFF7E
:102CA0000000903C03F0004321F0004243EA02019F
:102CB000704700BF81F0004102E000BF83F0004395
:102CC00030B54FEA41044FEA430594EA050F08BFC7
:102CD00090EA020F1FBF54EA000C55EA020C7FEA8B
:102CE000645C7FEA655C00F0E2804FEA5454D4EB08
:102CF0005555B8BF6D420CDD2C4480EA020281EAD2
:102D0000030382EA000083EA010180EA020281EA09
:102D10000303362D88BF30BD11F0004F4FEA01315B
:102D20004FF4801C4CEA113102D0404261EB41016A
:102D300013F0004F4FEA03334CEA133302D05242F0
:102D400063EB430394EA050F00F0A780A4F10104AC
:102D5000D5F1200E0DDB02FA0EFC22FA05F28018E6
:102D600041F1000103FA0EF2801843FA05F35941CC
:102D70000EE0A5F120050EF1200E012A03FA0EFC4B
:102D800028BF4CF0020C43FA05F3C01851EBE37175
:102D900001F0004507D54FF0000EDCF1000C7EEB92
:102DA00000006EEB0101B1F5801F1BD3B1F5001FD0
:102DB0000CD349085FEA30004FEA3C0C04F10104EF
:102DC0004FEA445212F5800F80F09A80BCF1004F18
:102DD00008BF5FEA500C50F1000041EB045141EA9A
:102DE000050130BD5FEA4C0C404141EB010111F49B
:102DF000801FA4F10104E9D191F0000F04BF014646
:102E00000020B1FA81F308BF2033A3F10B03B3F123
:102E100020020CDA0C3208DD02F1140CC2F10C02B3
:102E200001FA0CF021FA02F10CE002F11402D8BF11
:102E3000C2F1200C01FA02F120FA0CFCDCBF41EADD
:102E40000C019040E41AA2BF01EB0451294330BDAC
:102E50006FEA04041F3C1CDA0C340EDC04F1140489
:102E6000C4F1200220FA04F001FA02F340EA030060
:102E700021FA04F345EA030130BDC4F10C04C4F1A6
:102E8000200220FA02F001FA04F340EA0300294686
:102E900030BD21FA04F0294630BD94F0000F83F4D0
:102EA000801306BF81F480110134013D4EE77FEAB3
:102EB000645C18BF7FEA655C29D094EA050F08BFFF
:102EC00090EA020F05D054EA000C04BF19461046E0
:102ED00030BD91EA030F1EBF0021002030BD5FEA24
:102EE000545C05D14000494128BF41F0004130BD4C
:102EF00014F580043CBF01F5801130BD01F00045A0
:102F000045F0FE4141F470014FF0000030BD7FEA12
:102F1000645C1ABF194610467FEA655C1CBF0B460D
:102F2000024650EA013406BF52EA033591EA030F24
:102F300041F4002130BD00BF90F0000F04BF00211C
:102F4000704730B54FF4806404F132044FF000054F
:102F50004FF0000150E700BF90F0000F04BF0021C8
:102F6000704730B54FF4806404F1320410F000452E
:102F700048BF40424FF000013EE700BF42004FEA29
:102F8000E2014FEA31014FEA02701FBF12F07F43A6
:102F900093F07F4F81F06051704792F0000F14BFA3
:102FA00093F07F4F704730B54FF4607401F00045E7
:102FB00021F0004120E700BF50EA010208BF70473E
:102FC00030B54FF000050AE050EA010208BF704733
:102FD00030B511F0004502D5404261EB41014FF49C
:102FE000806404F132045FEA915C3FF4DCAE4FF0A0
:102FF00003025FEADC0C18BF03325FEADC0C18BF87
:10300000033202EBDC02C2F1200300FA03FC20FAD7
:1030100002F001FA03FE40EA0E0021FA02F1144424
:10302000C1E600BF70B54FF0FF0C4CF4E06C1CEA39
:1030300011541DBF1CEA135594EA0C0F95EA0C0FAE
:1030400000F0DEF82C4481EA030621EA4C5123EA21
:103050004C5350EA013518BF52EA033541F4801150
:1030600043F4801338D0A0FB02CE4FF00005E1FB03
:1030700002E506F00042E0FB03E54FF00006E1FB4D
:1030800003569CF0000F18BF4EF0010EA4F1FF0490
:10309000B6F5007F64F5407404D25FEA4E0E6D41D0
:1030A00046EB060642EAC62141EA55514FEAC520E1
:1030B00040EA5E504FEACE2EB4F1FD0C88BFBCF55D
:1030C000E06F1ED8BEF1004F08BF5FEA500E50F10E
:1030D000000041EB045170BD06F0004646EA0101D4
:1030E00040EA020081EA0301B4EB5C04C2BFD4EB06
:1030F0000C0541EA045170BD41F480114FF0000EFF
:10310000013C00F3AB8014F1360FDEBF002001F06C
:10311000004170BDC4F10004203C35DA0C341BDCE6
:1031200004F11404C4F1200500FA05F320FA04F0B8
:1031300001FA05F240EA020001F0004221F00041EC
:1031400010EBD37021FA04F642EB06015EEA430E5F
:1031500008BF20EAD37070BDC4F10C04C4F120058F
:1031600000FA04F320FA05F001FA04F240EA020042
:1031700001F0004110EBD37041F100015EEA430E13
:1031800008BF20EAD37070BDC4F1200500FA05F233
:103190004EEA020E20FA04F301FA05F243EA0203B2
:1031A00021FA04F001F0004121FA04F220EA0200C1
:1031B00000EBD3705EEA430E08BF20EAD37070BD07
:1031C00094F0000F0FD101F00046400041EB0101E7
:1031D00011F4801F08BF013CF7D041EA060195F0C9
:1031E000000F18BF704703F00046520043EB030383
:1031F00013F4801F08BF013DF7D043EA0603704770
:1032000094EA0C0F0CEA135518BF95EA0C0F0CD07A
:1032100050EA410618BF52EA4306D1D181EA0301C0
:1032200001F000414FF0000070BD50EA410606BFBA
:103230001046194652EA430619D094EA0C0F02D1FF
:1032400050EA013613D195EA0C0F05D152EA033644
:103250001CBF104619460AD181EA030101F0004162
:1032600041F0FE4141F470014FF0000070BD41F0AB
:10327000FE4141F4780170BD70B54FF0FF0C4CF485
:10328000E06C1CEA11541DBF1CEA135594EA0C0FA4
:1032900095EA0C0F00F0A7F8A4EB050481EA030EF1
:1032A00052EA03354FEA013100F088804FEA0333D8
:1032B0004FF0805545EA131343EA12634FEA0222A6
:1032C00045EA111545EA10654FEA00260EF0004167
:1032D0009D4208BF964244F1FD0404F5407402D2B9
:1032E0005B084FEA3202B61A65EB03055B084FEA4A
:1032F00032024FF480104FF4002CB6EB020E75EB47
:10330000030E22BFB61A754640EA0C005B084FEA6E
:103310003202B6EB020E75EB030E22BFB61A7546EB
:1033200040EA5C005B084FEA3202B6EB020E75EB36
:10333000030E22BFB61A754640EA9C005B084FEAAE
:103340003202B6EB020E75EB030E22BFB61A7546BB
:1033500040EADC0055EA060E18D04FEA051545EAAA
:1033600016754FEA06164FEAC30343EA52734FEA53
:10337000C2025FEA1C1CC0D111F4801F0BD141EACC
:1033800000014FF000004FF0004CB6E711F4801F31
:1033900004BF01430020B4F1FD0C88BFBCF5E06F11
:1033A0003FF6AFAEB5EB030C04BFB6EB020C5FEA21
:1033B000500C50F1000041EB045170BD0EF0004E76
:1033C0004EEA113114EB5C04C2BFD4EB0C0541EAA8
:1033D000045170BD41F480114FF0000E013C90E6A5
:1033E00045EA060E8DE60CEA135594EA0C0F08BF69
:1033F00095EA0C0F3FF43BAF94EA0C0F0AD150EA68
:1034000001347FF434AF95EA0C0F7FF425AF1046FA
:1034100019462CE795EA0C0F06D152EA03353FF422
:10342000FDAE1046194622E750EA410618BF52EA9F
:1034300043067FF4C5AE50EA41047FF40DAF52EA73
:1034400043057FF4EBAE12E74FF0FF3C06E000BF10
:103450004FF0010C02E000BF4FF0010C4DF804CD1D
:103460004FEA410C7FEA6C5C4FEA430C18BF7FEADD
:103470006C5C1BD001B050EA410C0CBF52EA430C0B
:1034800091EA030F02BF90EA020F0020704710F18B
:10349000000F91EA030F58BF994208BF90422CBF1A
:1034A000D8176FEAE37040F0010070474FEA410C13
:1034B0007FEA6C5C02D150EA013C07D14FEA430C31
:1034C0007FEA6C5CD6D152EA033CD3D05DF8040BA2
:1034D000704700BF8446104662468C4619466346D4
:1034E00000E000BF01B5FFF7B7FF002848BF10F1AB
:1034F000000F01BD4DF808EDFFF7F4FF0CBF0120F0
:1035000000205DF808FB00BF4DF808EDFFF7EAFF6B
:1035100034BF012000205DF808FB00BF4DF808ED26
:10352000FFF7E0FF94BF012000205DF808FB00BF1B
:103530004DF808EDFFF7CEFF94BF012000205DF8A5
:1035400008FB00BF4DF808EDFFF7C4FF34BF0120B2
:1035500000205DF808FB00BF4FEA410212F500129F
:1035600015D211D56FF47873B3EB625212D94FEACA
:10357000C12343F0004343EA505311F0004F23FAB4
:1035800002F018BF404270474FF00000704750EA09
:10359000013005D111F0004008BF6FF000407047C6
:1035A0004FF00000704700BF4A0011D212F5001220
:1035B00011D20DD56FF47873B3EB62520ED44FEA8B
:1035C000C12343F0004343EA505323FA02F070470B
:1035D0004FF00000704750EA013002D14FF0FF3049
:1035E00070474FF00000704770B50F4E0F4D761BBF
:1035F000B61018BF002405D0013455F8043B984795
:10360000A642F9D10A4E0B4D761B1CF031FAB610CA
:1036100018BF002406D0013455F8043B9847A64251
:10362000F9D170BD70BD00BF7CFA41007CFA410049
:1036300084FA41007CFA410070B4840746D0541EDD
:10364000002A41D0CDB2034602E0621EE4B3144624
:1036500003F8015B9A07F8D1032C2ED9CDB245EAC5
:1036600005250F2C45EA054519D903F11002264618
:10367000103E0F2E42F8105C42F80C5C42F8085CD9
:1036800042F8045C02F11002F2D8A4F1100222F018
:103690000F0204F00F041032032C13440DD91E4600
:1036A0002246043A032A46F8045BFAD8221F22F085
:1036B00003020432134404F003042CB1C9B21C44C5
:1036C00003F8011BA342FBD170BC704714460346AC
:1036D000C2E700BF0CB4F0B5244B00299DB01D68B3
:1036E0003EDB4FF402730C4602900690ADF81430A6
:1036F00023AE17D04C1E229A049433464FF6FF7720
:10370000284602A907940196ADF8167000F05EF8FD
:10371000421C22DB029B00221A701DB0BDE8F04063
:1037200002B0704733464FF6FF77284602A9229A27
:10373000049407940196ADF8167000F047F8431C06
:1037400004DB1DB0BDE8F04002B070478B232B6056
:103750001DB0BDE8F04002B070478B232B60D9E765
:103760008B232B604FF0FF30EBE700BF38040020C5
:1037700020F0030110F00300C0F1000051F8043BF9
:1037800000F1040C4FEACC0C6FF000021CBF22FACF
:103790000CF213434FF0010C4CEA0C2C4CEA0C4C8D
:1037A000A3EB0C0222EA030212EACC1204BF51F886
:1037B000043B0430F4D0C2F1000102EA0102B2FA83
:1037C00082F2C2F11F0200EBD20070472DE9F04FE8
:1037D000C1B089460A920E93089002F06FFB03680D
:1037E00017931846FFF7C4FFB9F80C3018901A0663
:1037F00004D5D9F81030002B01F08C80002330AFB5
:10380000139325932493169319930B93239714934F
:1038100015933C464E460A9D2B78002B00F0A9805C
:10382000252B02D1A5E0252B03D015F8013F002B55
:10383000F9D10A9BEB1A73B1249A25990A98206052
:1038400001321944072A63602591249272DC0834FE
:103850000B9A1A440B922B78002B00F0B5870023AB
:10386000691C6D788DF86F301A460C9307934FF0F2
:10387000FF3A4B1CA5F12001582900F2D983DFE85B
:1038800011F07002D703D7037403D703D703D7030C
:10389000D703D703D703F0020D02D703F4011102B7
:1038A000D7037B03BA02BA02BA02BA02BA02BA0258
:1038B000BA02BA02BA02D703D703D703D703D70392
:1038C000D703D703D703D703D703C9028B03D70383
:1038D0008B03D703D703D703D7036D03D703D703CE
:1038E0000503D703D703D703D703D7032303D7038E
:1038F000D7033D03D703D703D703D703D703D70392
:10390000D703D703D703D70358032C028B038B03AA
:103910008B03FE022C02D703D703E602D7037E02F5
:10392000FB01C0037702D7039202D7037A00D703C3
:10393000D7034A0208980793314623AA03F0C8FB2D
:1039400050B93C46079B83E70898314623AA03F009
:10395000BFFB002800F08581B146B9F80C3013F0A8
:10396000400F0B9B18BF4FF0FF33184641B0BDE826
:10397000F08F0A9D6FE70A93079B980640F1AD828E
:103980000E9B03F1070929F0070303F10802D3E9AD
:1039900000890E9201234FF0000C8DF86FC0CDF816
:1039A00044A0BAF1000F03DB079A22F080020792CD
:1039B00058EA090240F04C83BAF1000F00F051843C
:1039C000012B00F04F83022B00F0908439464FEA20
:1039D000D80242EA49724FEAD90008F0070381464B
:1039E0009046303358EA090201F8013DEFD1079AB9
:1039F0001091D20700F144857B1A0D930D9A9245E0
:103A00005346B8BF1346099300231293BCF1000F2D
:103A100002D0099B01330993079B13F002030F9314
:103A200002D0099B02330993079B13F0840940F0ED
:103A30000C830C9B099AC2EB0308B8F1000F40F30A
:103A40000483B8F1100F2599249ADFF844A529DDE5
:103A500053464FF0100BC246A8461D4606E0AAF199
:103A6000100ABAF1100F04F1080417DD0132103109
:103A7000072A2591249284E82008F0DD0898314631
:103A800023AA03F025FB00287FF466AFAAF1100AF1
:103A9000BAF1100F2599249A3C46E7DC2B4645469F
:103AA000D0469A46013208EB010B072ACDF894B0B4
:103AB0002492C4F800A0C4F8048000F37B849DF82D
:103AC0006FC00834BCF1000F0FD0249B01330BF101
:103AD000010B0DF16F010122072BCDF894B0249357
:103AE00084E8060000F3DA8308340F9B73B1249B4B
:103AF00001330BF1020B1CA90222072BCDF894B065
:103B0000249384E8060000F3D5830834B9F1800FCC
:103B100000F01183119B0D9AC2EB030ABAF1000F5A
:103B20003CDDBAF1100F249ADFF868942BDD49468A
:103B30005B46A9464FF01008DDF820B00D4606E0C0
:103B4000AAF1100ABAF1100F04F1080417DD0132CE
:103B50001033072A2593249284E82001F0DD58468B
:103B6000314623AA03F0B4FA00287FF4F5AEAAF197
:103B7000100ABAF1100F259B249A3C46E7DC9B46BD
:103B80002B464D4699460132D344072ACDF894B0CE
:103B9000249284E8000600F375830834079BD90556
:103BA00000F16C82249B0D99109A226001338B44A2
:103BB000072BCDF894B06160249300F3468308345A
:103BC000079B5A0741D50C9B099A9D1A002D3CDD95
:103BD000102D249BDFF8B8A323DD4FF010085A46C0
:103BE000DDF8209004E0103D102D04F1080417DDED
:103BF00001331032072B25922493C4F800A0C4F897
:103C00000480F0DD4846314623AA03F061FA00281B
:103C10007FF4A2AE103D102D259A249B3C46E7DC94
:103C200093460133AB44072BCDF894B02493C4F8EA
:103C300000A0656009DD0898314623AA03F048FA20
:103C400000287FF489AEDDF894B00B9B099A0C999B
:103C50008A42ACBF9B185B180B93BBF1000F7FF43B
:103C600073AE002324933C46D5E5194607981D788A
:103C700040F004000790FCE50A93079B13F0200333
:103C800000F00E810E9B03F1070929F0070303F1F1
:103C90000802D3E900890E9200237CE61D781946BC
:103CA0002B22E6E51D782A2D03F1010100F0AD87F6
:103CB000A5F1300009280B464FF0000A3FF6DAADB7
:103CC00013F8015B0AEB8A0A00EB4A0AA5F13000FF
:103CD0000928F5D94AEAEA7ACCE50A93079B8DF8D8
:103CE0006F209B0640F1A1800E9B03F1070929F08C
:103CF0000709D9E9002309F108010E919046994678
:103D0000002A73F10003C0F20B849DF86FC0CDF858
:103D100044A0012345E60A939B4B1693079B8DF81D
:103D20006F209B0640F1F3800E9B03F1070929F0F9
:103D30000703D3E9008903F108020E92079BD90714
:103D400040F1F58058EA090300F0F180079A8DF8F8
:103D50007150302342F002028DF870300792022336
:103D600019E61D781946002A7FF483AD202280E5EC
:103D7000079941F0200107911D78194679E50A93CA
:103D8000079B8DF86F209A0640F1A1840B990E9A3B
:103D90004FEAE179136808468846043249460E9294
:103DA000C3E9000137E50E9A0A93136810934FF0A8
:103DB000000B8DF86FB002F10409002B00F03B8678
:103DC000BAF1000F1098C0F2E9855946524602F048
:103DD0000BFB002800F06C86109BCDF844B0C31A92
:103DE0000D93CDF8389023EAE3730993CDF848B0EA
:103DF0009DF86FC00AE6A5F13000002113F8015BC1
:103E000001EB810100EB4101A5F130000928F5D952
:103E10000C912FE50A93079B8DF86F2043F0100358
:103E20000793079B9B063FF55FAF079BD80600F102
:103E30006883079B590640F164830E99B1F90080AD
:103E400004314FEAE87942464B460E9158E71D7817
:103E500007996C2D00F0CB8441F0100107911946B1
:103E600007E50E9D29680C9108460028294601F1B6
:103E70000401C0F2B5840E911D781946F9E4079942
:103E800041F0400107911D781946F2E40A93079B1F
:103E900043F010030793079B13F020037FF4F2AE67
:103EA000079A12F0100240F01983079B13F04003A9
:103EB00000F014830E9913460A460432B1F80080CC
:103EC0000E924FF0000966E50A93079B43F010033A
:103ED0000793079B98063FF553AD079BD90600F162
:103EE0000683079B5A0640F102830E9AB2F80080BF
:103EF00004324FF0000901230E924CE50A93234B44
:103F00001693079B8DF86F209B063FF50DAF079B1F
:103F1000D80640F1CD830E9A13461B689846079B3E
:103F20000432D9070E924FF000093FF50BAF022380
:103F300031E50E990A930A688DF898200023012232
:103F400004319C4609920E918DF86F3026ABCDF866
:103F500044C0CDF848C00D9210935DE5079941F03B
:103F6000080107911D78194683E4079941F0010182
:103F700007911D7819467CE4079941F0800107916B
:103F80001D78194675E400BF34F9410020F941005D
:103F900000F94100F0F841000A930E9B8DF86F2064
:103FA00003F1070929F0070303F108020E921A68CA
:103FB00014925B6815931599149803F04BF8012837
:103FC000D3461498159940F0598300220023FFF737
:103FD0009BFA002840F064859DF86FC0079BBE4A9D
:103FE000DFF800E323F0800307931346032100204A
:103FF000472DD8BF73460991119010930D911290DF
:1040000004E50E9807990A93302203688DF8702012
:104010000246782541F0020104329846AF4B1693D0
:1040200007910E924FF000098DF871500223B2E40F
:104030000A938DF86F20002D00F0C6830023012223
:104040009C4609928DF898507EE7DDF894B039E5EA
:10405000012B7FF4B8ACB9F1000F08BFB8F10A0F1B
:1040600080F01C820DF5807B08F130080BF8418D43
:10407000CBEB07030D93CDF840B0BFE4652D40F3C3
:10408000A0801498159900220023FFF733FA002826
:1040900000F04581249B924A226001330BF1010B11
:1040A0000122072BCDF894B02493626000F334838F
:1040B00008341D9B139A934203DB079BDA077FF5B5
:1040C0007FAD249B1899179A226001338B44072BEC
:1040D000CDF894B06160249300F390830834139B6F
:1040E0005D1E002D7FF76CAD102D249BDFF8F8913D
:1040F00040F3BA814FF010085A46DDF820A004E0E2
:104100000834103D102D40F3AE8101331032072BDF
:1041100025922493C4F80090C4F80480F0DD504642
:10412000314623AA02F0D4FF00287FF415AC259A6B
:10413000249B3C46E5E70C9B099AC2EB030ABAF1C3
:10414000000F7FF7E7ACBAF1100F249ADFF89891CF
:104150002BDD49465B46A9464FF01008DDF820B03C
:104160000D4606E0AAF1100ABAF1100F04F1080496
:1041700017DD01321033072A2593249284E82001A9
:10418000F0DD5846314623AA02F0A2FF00287FF452
:10419000E3ABAAF1100ABAF1100F259B249A3C4612
:1041A000E7DC9B462B464D4699460132D344072A0D
:1041B000CDF894B0249284E8000600F352820834CB
:1041C000A8E4139B249D012B40F32082109B2360C5
:1041D00001350BF101030122072D2593249562601F
:1041E00000F32682083418996160013503EB010B56
:1041F000072D179BCDF894B02495236000F32482FB
:1042000008340023149815990022FFF773F9139BC3
:10421000002840F0DE80109A013B013501329B44BA
:10422000072D2495CDF894B02260636000F30E81D1
:104230000834199A6260013593441FAB072DCDF8FD
:1042400094B0249523607FF7BAAC0898314623AA2E
:1042500002F03EFF00287FF47FABDDF894B03C46CF
:10426000AEE4002B32D1079BD8072FD50DF5807B0C
:1042700030230BF8413DCBEB07030D93CDF840B055
:10428000FFF7BCBB0898314623AA02F021FF0028A3
:104290007FF462ABDDF894B03C467FE40898314689
:1042A00023AA02F015FF00287FF456ABDDF894B086
:1042B0003C461AE40898314623AA02F009FF002878
:1042C0007FF44AABDDF894B03C461FE4CDF834A04F
:1042D0001097FFF793BB00BF14F9410034F9410078
:1042E00050F9410010F94100F0F841001698BB4622
:1042F0004FEA181308F00F0143EA09734FEA191245
:1043000098469146435C0BF8013D58EA0903EFD10A
:104310005B46CDF840B0FB1A0D93FFF76FBB1D9DB8
:10432000002D40F30582139A12998A421346A8BFC2
:104330000B461D461099002D01EB020A0BDD249B54
:1043400021600133AB44072BCDF894B06560249312
:1043500000F34D830834129B002DA8BF5B1B002B7C
:104360001D4640F3F580102D249BDFF8F49540F3B3
:10437000C6815A464FF01008DDF820B004E008343A
:10438000103D102D40F3BA8101331032072B2592D6
:104390002493C4F80090C4F80480F0DD58463146F8
:1043A00023AA02F095FE00287FF4D6AA259A249B22
:1043B0003C46E5E70898314623AA02F089FE00282A
:1043C0007FF4CAAA9DF86FC0DDF894B03C46FFF7B1
:1043D00079BB03F1FF38B8F1000F7FF72AAFB8F1CE
:1043E000100FDFF87C9525DD5B464FF0100ADDF8F5
:1043F00020B006E0A8F11008B8F1100F04F108048D
:1044000017DD01351033072D2593249584E8000628
:10441000F0DD5846314623AA02F05AFE00287FF408
:104420009BAAA8F11008B8F1100F259B249D3C46CB
:10443000E7DC9B460135C344072DCDF894B02495A5
:10444000C4F80090C4F804807FF7F2AE08983146B3
:1044500023AA02F03DFE00287FF47EAADDF894B086
:10446000249D3C46E5E693460133AB44072BCDF84B
:1044700094B02493C4F8009065607FF7A0ABE4E6A5
:10448000302B109B3FF447AF013B1A461093BA1AEA
:1044900030230D9201F8013CFFF7B0BABB46CDF8CE
:1044A00024C0404649460A22002302F015FF30325C
:1044B000404649460BF8012D00230A2202F00CFF6A
:1044C0008046894658EA0903EBD15B46FB1ADDF8C2
:1044D00024C0CDF840B00D93FFF790BA0E990A684A
:1044E00004310E9190464FF00009FFF754BA0E992F
:1044F0000A68043101230E9190464FF00009FFF73E
:104500004ABA0E9A136898464FEAE3791346043381
:1045100042460E93002A4B4673F10003BFF6F5ABFB
:104520004FF02D0CD8F1000869EB49098DF86FC0E8
:10453000CDF844A00123FFF734BA0898314623AAE6
:1045400002F0C6FD00287FF407AADDF894B03C46CF
:10455000109A12991D9B0A449046139A934246DB87
:10456000079AD00743D4139AC8EB0A05D31A9D4281
:10457000A8BF1D46002D0CDD249AC4F8008001322E
:10458000AB44072ACDF894B06560249200F36782AB
:104590000834002DACBF5D1B1D46002D7FF710AB0E
:1045A000102D249BDFF8B8937FF75EAF4FF0100813
:1045B0005A46DDF820A004E00834103D102D7FF7A6
:1045C00052AF01331032072B25922493C4F8009088
:1045D000C4F80480F0DD5046314623AA02F078FD8D
:1045E00000287FF4B9A9259A249B3C46E5E7249A44
:1045F00018981799216001328344072ACDF894B0A6
:104600006060249200F30A820834ACE7079BD90764
:104610003FF5DCAD109B236001350BF1010B01234D
:10462000072DCDF894B0249563607FF701AE0DE7B8
:104630000898314623AA02F04BFD00287FF48CA98C
:10464000259B249D3C46CEE50898314623AA02F0DE
:104650003FFD00287FF480A9DDF894B0249D3C46FE
:10466000CFE50898314623AA02F032FD00287FF4F6
:1046700073A9DDF894B03C46FFF74CBA02F0EAFCAF
:10468000002840F0C7808646B24AB34B1190079885
:104690009DF86FC0CDF848E0032120F08000472D41
:1046A000D8BF1A460991079010920D91FFF7AEB945
:1046B000079B0E9A13F0400F13463FF42EAC0433C1
:1046C000B2F800800E934FF00009FFF737BB079B4D
:1046D000DB060BD4079B5D0608D50E9A13680432DF
:1046E0000E92BDF82C201A80FFF795B80E9A136829
:1046F00004320E920B9A1A60FFF78DB8934601337D
:10470000AB44072BCDF894B02493C4F800906560B7
:104710003FF713AF08341BE70898314623AA02F08D
:10472000D7FC00287FF418A9DDF894B03C46C0E41B
:10473000249B8A4A226001330BF1010B0122072BD3
:10474000CDF894B02493626000F3F48008342DB95E
:10475000139B1BB9079BDB077FF532AA249B189894
:10476000179A226001330BEB0001072B2591606043
:10477000249300F3F38104F108026D42002D40F30D
:10478000FC80102DDFF8D89140F33D811024DDF836
:10479000208004E00832103D102D40F334810133B5
:1047A0001031072B25912493C2F800905460F1DD5D
:1047B0004046314623AA02F08BFC00287FF4CCA8A7
:1047C0002599249B3A46E6E7259BB146002B3FF40A
:1047D000C4A80898314623AA02F07AFCFFF7BDB8B6
:1047E0000C980E9140420C901946FFF73FBA41F0E9
:1047F000200107915D78591CFFF73BB808983146B6
:1048000023AA02F065FC00287FF4A6A8DDF894B086
:104810003C4664E425F02003BAF1FF3F0D9300F01D
:104820009680472B05D1BAF1000F14BFD3464FF045
:10483000010B079B43F480731193159BB3F1000A9E
:10484000149B0993BBBF534603F1004A00232D2359
:10485000662D0F9300F0AC80462D00F0A9800D9BD3
:10486000099A452B0CBF0BF10109D94602201DA95D
:104870008DE8010202911EA821A9039053460491DC
:10488000089800F095FA672D109002D0472D40F05F
:104890009F80079BDB0740F18981109B03EB090890
:1048A0000998514600220023FEF724FE002840F01C
:1048B000FD80219B984506D930215A1C2192197000
:1048C000219B9845F9D8109A9B1A13930D9B472B5F
:1048D0001D9B00F0DE80652D40F3F880662D12935D
:1048E00000F05781139B129A934200F34481079B77
:1048F000D90700F1738122EAE2730D920F9A002A20
:1049000040F0BC800993119B079311929DF86FC0F2
:10491000FFF77CB80898402101F0D4FAC9F80000EC
:10492000C9F81000002800F08C814023C9F8143029
:10493000FEF764BF0898314623AA02F0C9FB00289D
:104940007FF40AA81D9DDDF894B03C46FFE64FF0C9
:10495000060B6EE71CF9410018F9410050F94100BF
:10496000F0F841000898314623AA02F0B1FB002874
:104970007EF4F2AF2599249B3A46139C5460013390
:1049800001EB040B072B1099CDF894B02493116020
:104990003FF75BAC02F10804FFF712B9CDF844B061
:1049A000FEF7E6FECDF838900D900346FFF71BBAF0
:1049B00003201DA98DE8010802911EA821A90390DA
:1049C000099A04915346089800F0F2F9D9461090DC
:1049D000109B03EB09080D9B462B7FF461AF109BE6
:1049E0001B78302B00F0E4801D9B984458E7089812
:1049F000314623AA02F06CFB00287EF4ADAFDDF84F
:104A000094B03C46A7E401332944072B2591249315
:104A1000C2F800905560A5DC0832AEE70898314630
:104A200023AA02F055FB00287EF496AF1D9BDDF80B
:104A300094B03C4697E55346062B28BF06230D93BA
:104A400023EAE373DDF840C00993834BCDF8389037
:104A5000CDF844C0CDF848C01093FEF7D7BF0898F2
:104A6000314623AA02F034FB00287EF475AF1D9B6B
:104A7000139ADDF894B0D31A3C468AE50993119B4A
:104A800007934FF02D0C00238DF86FC01193FEF7A4
:104A9000C0BFDA1C19DB9B4517DB1293672521E7A2
:104AA0004FF02D0C8DF86FC0FFF798BA43460AE718
:104AB0002AEAEA731190CDF8389012909DF86FC0F1
:104AC0000993CDF834A0FEF7A1BF023D013B002BB6
:104AD0001D93BABF5B422D222B22092B8DF87C50EF
:104AE0008DF87D2072DD0DF18B0E70465B4A82FBE6
:104AF0000321DA17C2EBA10202EB8201A3EB41030F
:104B000003F13001092A134600F8011DEEDC0246CC
:104B10003033D9B202F8011D964540F299800DF16B
:104B20007E02034601E013F8011B02F8011B7345E6
:104B3000F9D123AB1B1A0DF17E0213441FAA9B1A55
:104B4000139A1993012A13440D936BDD0D9B0022D8
:104B500001330D93129223EAE373CFE608983146AE
:104B600023AA02F0B5FA00287EF4F6AE1D9D259921
:104B7000249B3A4601E6129B002BD8BFC3F10208E2
:104B8000139BC8BF4FF0010843440D9323EAE3731E
:104B9000B4E6002B30DDBBF1000F25D1079BDB070E
:104BA00022D4129A0D9222EAE273A7E6219B8AE6AA
:104BB0000998514600220023FEF79CFC00287FF450
:104BC00013AFC9F101031D93984469E630333022D5
:104BD0008DF87F308DF87E2020ABAFE7129B01333C
:104BE0000D9323EAE37389E6129B0BF1010843441A
:104BF0000D9323EAE37381E6BBF1000F1BD1079B02
:104C0000D80718D401230D9378E60E9DD5F800A09F
:104C100028460430BAF1000F5D780E90BEF629AE3A
:104C2000FEF725BE079B13F001038FD112930D9B56
:104C300023EAE37362E60BF102030D9323EAE373C5
:104C40005CE6089A0C2313604FF0FF30FEF78EBE2F
:104C50000DF17E0372E700BF48F9410067666666A2
:104C6000024B13B1024800F005B870470000000085
:104C7000455C4000014600200246034602F0AABA05
:104C800002690B69934200F38F802DE9F04F03F125
:104C9000FF3801F1140700F1140B57F828205BF8D6
:104CA00028304FEA880483B00132B3FBF2F90BEBF2
:104CB0000403009407EB040A0193B9F1000F3BD001
:104CC00000263246BC46DE4634465CF8046BDEF80D
:104CD0000050B3B2360C03FB094406FB09F606EBA1
:104CE0001446A3B2D31AB4B213FA85F3C4EB154435
:104CF00004EB23449BB243EA0443E2454FEA2442D7
:104D00004EF8043B4FEA1644DFD2009B5BF80330B9
:104D100093B9019C231F9B450CD254F8043C4BB91A
:104D2000A4F1080302E01A68043B1AB99B4508F194
:104D3000FF38F8D3C0F81080044601F0ABFE00281D
:104D40002EDB09F101095D46002357F8041B286892
:104D50008AB29A1A090C12FA80F2C1EB104303EBE3
:104D6000224391B241EA0341BA4545F8041B4FEA98
:104D70002343EAD25BF828200BEB880382B91A1F81
:104D800093450BD253F8042C42B9083B02E01A6851
:104D9000043B1AB99B4508F1FF38F8D3C4F81080DA
:104DA000484603B0BDE8F08F0020704700000000C7
:104DB0002DE9F04F016C97B00446239DCDE9022305
:104DC00041B1426C4A60012393408B6001F07EFC4C
:104DD00000232364DDE90223002B994636DB002300
:104DE0002B60A54B1A4609EA0303934217D0DDE96D
:104DF00002670022304639460023FEF77BFB8046DF
:104E000000282BD0229A01231360249B002B00F052
:104E1000CB809A481860013817B0BDE8F08F229A0D
:104E200042F20F731360029B002B00F0A68094489F
:104E3000249B002BF0D0C378002B00F0B78000F14A
:104E40000803249A136017B0BDE8F08F039A01237A
:104E500022F000492B60CDF80C90C2E715AA14ABE4
:104E60008DE80C00204632463B4601F0A1FE5FEA89
:104E70001955834640F08A80DDF85080159D6FF407
:104E8000826345449D42C0F297827E4A521B09FAD2
:104E900002F9029A05F2124322FA03F049EA0000ED
:104EA000FEF74AF80123013DA1F1F8710D930022AC
:104EB000754BFDF703FF6AA3D3E90023FEF7B2F8B1
:104EC00069A3D3E90023FDF7FBFE064628460F46FB
:104ED000FEF742F866A3D3E90023FEF7A3F80246E3
:104EE0000B4630463946FDF7EBFE06460F46FEF709
:104EF00033FB39460490002230460023FEF704FBC2
:104F0000002840F0A681049B162B00F29F81049A92
:104F10005E4B03EBC203D3E90001DDE90223FEF798
:104F200011FB002800F04E82049B013B04930023F8
:104F30000B93C5EB0805B5F1010A00F1A18100232F
:104F40000593049B002BC0F292819A440A9300239C
:104F50000893209B092B2BD8052B40F37086043B2C
:104F600020930025209B023B032B00F24E86DFE8B6
:104F700013F0CC03BE03B2026306414B444AC9F3AB
:104F80001300002814BF1846104651E7C7F3130357
:104F900043F07F51CDF834803046A5F2FF3541F41F
:104FA0004011DDF8508082E73A4835E7C31C48E7F6
:104FB000002161642046209101F062FB4FF0FF3335
:104FC0000693209A0C930123079021922064099361
:104FD000159B002BC0F2D280049A0E2A00F3CE80DB
:104FE0002A4B03EBC203D3E90089219B002BC0F2BB
:104FF0008F83DDE9026742464B4630463946FEF76D
:105000003BF9FEF7A9FA8246FDF7A6FF42464B465A
:10501000FEF708F80B46024639463046FDF74EFECD
:10502000079D0AF130032B70069B012B06460F46A5
:1050300005F1010562D00022174BFDF7F3FF0022B6
:10504000002306460F46FEF755FA002840F08380FD
:10505000CDF808B00594DDF81CB0069C29E000BF2F
:1050600061436F63A787D23FB3C8608B288AC63F6E
:10507000FB799F501344D33F0000F07F51F941006A
:1050800060F941000EFCFFFF0000F83F70F941009D
:1050900054F9410050F9410000002440FDF7C2FFDF
:1050A0000022002306460F46FEF724FA002840F0AF
:1050B000DE8342464B4630463946FEF7DDF8FEF7C2
:1050C0004BFA8246FDF748FF42464B46FDF7AAFFE2
:1050D00002460B4630463946FDF7F0FD0AF1300E28
:1050E00005F801EBCBEB050E744506460F464FF075
:1050F0000002B54BD2D1DDF808B0059C32463B46E4
:1051000030463946FDF7DCFD06460F464046494627
:1051100032463B46FEF7F8F948B940464946324622
:105120003B46FEF7E7F9B0B11AF0010F13D015F8BE
:10513000018C07996B1E04E08B4200F0408413F849
:10514000018DB8F1390F03F101051A46F4D008F1C9
:105150000103DBB213702046594601F0B7FA002272
:10516000049B2A70229A01331360249B002B00F0C9
:10517000458307981D6017B0BDE8F08F099A002A93
:1051800000F08480209A012A40F30483069B5F1E6E
:10519000089BBB42C0F2A983DF1B069B002BC0F219
:1051A0009C84059D069B059A20461A440121059280
:1051B0009A4401F025FB064665B1BAF1000F09DDFE
:1051C000AA45059A5346A8BF2B46D21A0592ED1A56
:1051D000C3EB0A0A089B002B1ADD099B002B00F089
:1051E0007D83002F10DD31463A46204601F0ACFBAE
:1051F00006465A463146204601F00CFB5946804689
:10520000204601F063FAC346089BDA1B40F0A282F5
:105210002046012101F0F4FA0A9B002B804639DD7B
:1052200001461A46204601F08FFB209B012B804649
:1052300040F396824FF00009D8F8103008EB830352
:10524000186901F08FFAC0F120002DE001230B93C3
:105250006FE60498FDF780FE32463B46FEF74AF9BA
:1052600000287FF450AE049B013B04934BE6059A63
:10527000049BD21A5B420893002305920A9368E6C6
:10528000CAF1000305934FF0000A5AE6089F059DF6
:10529000099E91E7209B012B40F3B3824FF0000958
:1052A0000A9B002BC8D10120504410F01F0000F0D1
:1052B0008180C0F12003042B40F3B884C0F11C00AE
:1052C000059B0344059305448244059B002B05DDA3
:1052D00059461A46204601F087FB8346BAF1000F73
:1052E00005DD41465246204601F07EFB80460B9B81
:1052F000002B40F06882069B002B40F39582099BAF
:10530000002B71D1DDF81C90069F4D4602E001F0A4
:10531000E7F9834641465846FFF7B2FC00F1300CEE
:1053200005F801CBC9EB0503BB42204659464FF0B7
:105330000A024FF00003EADB079B069A012AACBF82
:105340009B1801331D464FF0000A594601222046A2
:10535000CDF808C001F048FB4146834601F09AFBB6
:105360000028DDF808C040F3F68215F8012C0799F3
:105370006B1E04E08B4200F0738213F8012D392A72
:1053800003F10105F6D001321A704146204601F0C2
:105390009DF9002E3FF4DFAEBAF1000F05D0B24503
:1053A00003D05146204601F091F93146204601F0E4
:1053B0008DF9D0E61C2083E7044B029A5B1B02FAAE
:1053C00003F06DE50B90B4E500002440EEFBFFFF19
:1053D0003146002320460A2201F082F90C9B002B63
:1053E000064640F30C840693002D05DD31462A461F
:1053F000204601F0F9FA0646B9F1000F40F0E982C3
:10540000B146069B079A013BD3180893029B03F011
:1054100001030993174641465846FFF731FC3146D0
:105420000546584601F036FB4A468246414620462C
:1054300001F054FBC268034605F1300C002A40F02D
:10544000B88119465846CDF818C0059301F022FBE3
:10545000059B02901946204601F038F9029ADDF8C2
:1054600018C02AB9209B1BB9099B002B00F0A78309
:10547000BAF1000FC0F2518205D1209B1BB9099BE4
:10548000002B00F04A82002A00F3B782089B87F8BD
:1054900000C007F1010A9F42554600F0BA82594602
:1054A0000A220023204601F01BF94E45834631466F
:1054B00020464FF00A024FF0000300F0748101F023
:1054C0000FF9494606460A222046002301F008F952
:1054D000574681469FE701230993219B002B40F308
:1054E00013821F461E460C9306930021172F6164FA
:1054F0000AD9012204235B0003F1140087421146FC
:1055000002F10102F7D26164204601F0B9F80E2ED3
:10551000079020643FF65CAD002D3FF459ADDDE906
:10552000022304990029CDE90E2340F32182B74BD1
:1055300001F00F020D1103EBC203E906D3E9006786
:1055400040F1DB81B24BDDE90E01D3E90823FDF721
:1055500093FECDE9020105F00F054FF003088DB170
:10556000DFF8AC9230463946EA0705D5D9E9002381
:1055700008F10108FDF756FD6D1009F10809F3D196
:1055800006460F46DDE9020132463B46FDF774FE52
:10559000CDE902010B9B43B1DDE9020100229D4BE5
:1055A000FDF7B2FF002840F0AC824046FDF7D4FC86
:1055B000DDE90223FDF736FD974B0022FDF780FB66
:1055C000069B0646A1F15077002B00F06281049BF8
:1055D000DDF818901293099B002B00F021828B4B71
:1055E0008E4903EBC90353E902230020FDF744FE73
:1055F00032463B46FDF762FBDDE90267CDE910016B
:1056000039463046FDF7A8FF0546FDF7A5FC3035C5
:1056100002460B4630463946FDF750FB5FFA85F8E7
:10562000079DDDE9102385F8008006460F46013509
:10563000FDF76AFF002840F0B28232463B46002068
:105640007449FDF73BFB02460B46DDE91001FDF70F
:1056500079FF002840F0AC82B9F1010F40F33881A6
:10566000079BCDF84CA0CDF808B09944DDE910AB0C
:10567000A0460DE000206749FDF720FB52465B463F
:10568000FDF742FF002840F08E824D4500F01B815F
:10569000504659460022624BFDF7C4FC0022604B85
:1056A00082468B4630463946FDF7BCFC0F4606461F
:1056B000FDF752FF0446FDF74FFC02460B4630460D
:1056C0003946FDF7FBFA3034E4B252465B4605F842
:1056D000014B06460F46FDF717FF32463B460028B2
:1056E000C8D0129BDDF808B00493444633E500238C
:1056F0000993219B049A13440C930133002B0693C6
:1057000040F30981069E3746EFE600230993E4E65D
:10571000069B002B3FF76DAC40F0628240460022B2
:10572000404B4946FDF77EFCDDE90223FDF700FF13
:10573000DDF818804646002800F08A80219B079DEE
:10574000DB4304934146204600F0C0FF002E7FF467
:105750002CAE00E55946204601F0F6F8834657E5A1
:10576000029B002B7FF466AD039BC3F31303002B56
:105770007FF494AD039B23F000473F0D3F05002FBE
:1057800000F01A82059B013305930AF1010A4FF0DC
:10579000010985E50D9A002A00F0A58103F2334343
:1057A000089F059DFFE400F09BFF57460646814693
:1057B00031E601462046CDF808C000F087FF0122FF
:1057C000DDF808C054E65846414601F063F9002868
:1057D000BFF691AD049F5946002320460A22013F9F
:1057E000049700F07DFF099B8346002B7FF4F0AD0A
:1057F0000C9B002B40F3F881069383E50798FFF795
:105800000BBB029B002B7FF449ADADE770F9410063
:1058100048FA41000000F03F00001C400000E03F5B
:105820000000244000001440209B022B7FF767AD4E
:10583000069B002B82D141460522204600F050FFF6
:1058400080464146584601F025F900287FF776AF9B
:10585000049A07993123013204920B704D1C71E7B1
:10586000049A01320492079A312313708DE5DDF812
:1058700008B0059C6FE44046FDF76EFBDDE90223AE
:10588000FDF7D0FB0022BC4BFDF71AFA0646A1F14A
:105890005077DDE902010022B84BFDF70FFA3246DE
:1058A0003B46CDE90201FDF74DFE8046002840F061
:1058B000B380324607F10043DDE90201FDF724FE23
:1058C00030B146463AE7DDF84CA0DDF808B0444672
:1058D000DDE90E23CDE90223FFF77ABB5946089A8A
:1058E000204601F031F8834692E4089B0A9A089713
:1058F000FB1A1A440A9200274FE4DDE90E234FF009
:105900000208CDE902232AE6012621960C96069686
:1059100000216164F8E51E46FAE7002A15DD5946C4
:1059200001222046CDF808C001F05EF841468346CA
:1059300001F0B0F80028DDF808C040F34A81BCF15E
:10594000390F00F006810CF1010CB24687F800C057
:105950007D1C4E4619E504D11CF0010F01D004E571
:10596000154615F8013C302B05F1FF32F8D00CE557
:10597000049B5D42002D00F0BD80814B05F00F02BD
:1059800003EBC203D3E90023DDE90E01FDF74AFB77
:105990002D11CDE9020100F02C817A4E4FF0020862
:1059A000EB0705D5D6E9002308F10108FDF73AFB1E
:1059B0006D1006F10806F3D1CDE90201EAE5049A7B
:1059C00001320492079A3023137031231370FFF7CA
:1059D000C2BB7168204600F053FE33699A1C05462D
:1059E000920006F10C010C3000F048FD20462946DB
:1059F000012200F0F9FF814603E5BCF1390F00F008
:105A0000A8800CF1010CB24687F800C07D1C4E4600
:105A1000BBE4B2464E4698E44FF00008464617E70E
:105A2000574909F1FF3301EBC30132461393D1E922
:105A300000013B46FDF7F6FADDE90267CDE910010A
:105A400039463046FDF788FD0546FDF785FA0246E2
:105A50000B4630463946FDF731F9079A3035B9F132
:105A6000010F157006460F4602F1010523D0079B72
:105A7000CDF808A04B445E469A46AB460022424B06
:105A8000FDF7D0FA89468046FDF766FD0746FDF72B
:105A900063FA303702460B4640464946FDF70EF999
:105AA0000BF8017BD345E9D1139BDDF808A0B34681
:105AB0000F4606461D440022344BDDE91001FDF778
:105AC000FFF832463B46FDF71FFD002847D0129BEA
:105AD000049315F8018CFFF72CBB059B069A9D1AC1
